S017000068656C6C6F5F776F726C645F696E73742E686578BD
S1130000B701400073A0017C996173A00130B7016E
S1130010800073A00130A16173A0017CB7816300EB
S113002073A0017C73E0307F814001418141014232
S11300308142014381430144814401458145014694
S11300408146014781470148814801498149014A64
S1130050814A014B814B014C814C014D814D014E34
S1130060814E014F814FF32140F1054217E10E000B
S1130070130141F9970100009381E1097390513014
S1130080A14173A00130B70107009B81310173A026
S1130090217CB71100009B81F11F73A0117CB71163
S11300A000009B81F11F73A0117CB7E106009B81C6
S11300B0C13073A0517C9B0170009391D101938155
S11300C0910073A0317CEF10B0451305000093003C
S11300D0A0051301B0069301C0070B008001B741CE
S11300E044009B8131339391C100938121223302D7
S11300F03000130500009300C0021301B0030B008D
S11301008001B70147009B8191469391F10093814F
S113011001723DA085A0010001000100A1A8010019
S113012091A8010081A8010001000100A1A0010023
S113013091A0010081A001000100010025A855BF84
S1130140232ED1FE232CE1FE232AF1FE7327203433
S11301509377F77F6D93418B3E970E0797070000C7
S11301609387472ABA9798438326C1FF832741FF81
S113017071170287232ED1FE232CE1FE232AF1FEE0
S1130180732720349377F77F6D93418B3E970E0747
S11301909707000093870727BA9798438326C1FFE0
S11301A0832741FF7117028713000000130000002A
S11301B013000000130000001300000013000000EF
S11301C013000000130000001300000013000000DF
S11301D013000000130000001300000013000000CF
S11301E013000000130000001300000013000000BF
S11306606374D6000BD5C50082801300000001001E
S1130670828001001300000013000000130000003A
S11306801D71A2E8A6E4CAE04EFC52F85AF05EECF2
S113069062E866E486EC56F43E84328BC68C2A8982
S11306A0AE89368ABA8B428C93F73800B28495E3CC
S11306B08B37087CB28AB3848740B294637AF40699
S11306C05686D286850ACE85130500020299E399DF
S11306D054FFB30A940019C833868A40D6847D1423
S11306E0D286CE850BC58B8002997DF493FC2C00B9
S11306F063820C02338B64410B3C0C7C637C8B0166
S11307002686D286CE851305000285040299050B40
S1130710E3688BFF2685E6604664A6640669E27991
S1130720427AA27A027BE26B426CA26C25618280DF
S1130730B28445B71300000013000000130000004A
S1130740397122F826F44AF006FCA64FBE8406440A
S113075013F90F4061E3FE8093FFFFFE6316090C5B
S1130760814093F70F0293031006C5EF13000000B6
S113077081478A8E254FD9339302000215A00100C8
S11307801B03030385071373F30F338EFE00A30FBC
S11307906EFE3353070363680703638657021A87A1
S11307A0337E07031373FE0FE37CCFFD3B836300AB
S11307B085071373F30F338EFE00A30F6EFE3353BE
S11307C00703E37C07FD13F72F002DC76383001095
S11307D06310090EE1E7C1476305F81C8947630C00
S11307E0F81E1307000385472300E10013000000EF
S11307F0638004121307D0020BD7FE0085072288FA
S1130800FE887687EFF0DFE7E2704274A274027923
S11308102161828093F00F0193F70F029303100676
S1130820A1DB93031004A9B793F0200081478A8EBB
S1130830E39000FC7E8793F21F000BB3087C4DE02D
S113084063F56702130700026381E702130E0003D6
S1130850130F000221A001006389E7018507338794
S1130860FE00A30FC7FFE3E967FEE38102F60B3E38
S1130870047CE3FDC7F5130700026383E708130F45
S113088000039302000219A0638C5706850733877F
S1130890FE00A30FE7FFE399C7FF0DBF0BB3087C6E
S11308A06302F30C0B37047C630EF70A1300000099
S11308B041476309E80C0947630CE8081307000281
S11308C0E38FE7F23E8713080003930717000BD862
S11308D0EE0013070002E39DE7F09307000205B75B
S11308E063860204B5EC318B25EFE3F267F8130756
S11308F00002E39DE7F4E3FB87EC01001300000032
S1130900E38D00FC93070002E30C09F855B70100DE
S113091013F74F0005EB13F78F00E30207EE1307FD
S113092000020BD7FE008507D9BD0100E3F067EA9A
S113093013070002E39CE7F0E39C00E8930700023E
S11309407DBD01001307B0020BD7FE00850745BD2E
S113095013070002E385E7EA3387FE00850731A821
S11309607D3461B71387F7FFE30707E6C148630ADD
S113097018078948E31918F5769713082006230009
S113098007012DBF13F70F0215C713070002E388F1
S1130990E7E63E8813078005930718000BD70E017E
S11309A031BF93F70F02054795E3930780072300B0
S11309B0F10011BF13070002E383E7E43388FE006C
S11309C08507130780072300E800CDBD9307800542
S11309D02300F100CDBD9307200605472300F10055
S11309E0DDB51388E7FF93F70F02CDF77698BA8742
S11309F0C9BF010013000000130000001300000031
S1130A0011E18280FD556F10A03A1300000001002F
S1130A1001C59C618C6582878280130000000100FF
S1130A208D6887B708D6D398A7A2639308148D68F6
S1130A3087B788D6D398A7A2639008128D6887B722
S1130A4008D7D318F5A263990810797106F422F037
S1130A50D30700F2D318F5A26392081C8148994E7B
S1130A60137E084001430B97CE41930F0003A54E1C
S1130A70130F00021300000063FAEE000503330EA7
S1130A806100A30FFEFF7D37E318E3FF0D6E130E25
S1130A900ED1D31E05C28B66EE76D3870ED28D6F30
S1130AA0D377F50A07B70FD8D3F7D7121B8E0E00EA
S1130AB0539F37C253763FD2D3F7C70AD312F7A254
S1130AC06384020C050FD3773FD2D382F6A26385E9
S1130AD002001B8E1E00014F61E3D3070ED207B73D
S1130AE00FD85375F50A5317E5A201C75317A7A2E8
S1130AF019C7937E1E001B071E000B1ED743930FBE
S1130B000002A94E130000006303F30D3B67DE03EC
S1130B1005031B070703330F6100A30FEFFE3B4ED2
S1130B20DE03E3130EFE13773800054E6306C70B8E
S1130B307D47636967006387080E1307D0020B576C
S1130B4061000503C2880A873E889A87EFF05FB385
S1130B50A270027445618280D328A5A2638A081416
S1130B608D6887B788D7D318F5A2639B08108DA228
S1130B701377480041EF0D430D67C288130707B18F
S1130B803E889A87F5BC0100D39EE7A2E3960EF453
S1130B9063100F10050F31D39B0007FEA94FBB80D4
S1130BA06000254463051702B37EFF039B8E0E038A
S1130BB08B5E61009B02F7FF930E1300B353FF0398
S1130BC06370E40916871E8F7683E31F17FC13777F
S1130BD03800054EE318C7F7A1DF6387080CFD371B
S1130BE00BBE077CE376C3F57D47130F0003930E1A
S1130BF00002E36967F40100050333076100A30FF2
S1130C00E7FFE307C3F3E319D3FF2DBF11430D67D8
S1130C10C288130787B13E889A879DB453F5A70A03
S1130C20854835BD1377480035EB13778800E30B0F
S1130C3007F0130700020B576100050321B70100F9
S1130C40130F0002638FEE0709037937930F000334
S1130C500B37077C330FE3001303000263810206A2
S1130C60850E3307D101A30FF7FF638C6E04E3995C
S1130C70EEFF1307E00213031F000B57E10141B518
S1130C80C2880D673E88130787B29147D5BA010021
S1130C90937E1F00E3820EE4050FF5BD1307B00237
S1130CA00B576100050379BD1377C80015DB05BF39
S1130CB0C2880D673E88130707B28D47D1B2768F7D
S1130CC04DBF1303000221B71300000013000000FE
S1130CD05971CAE8CEE4D2E056FC5AF85EF486F4C0
S1130CE0A2F0A6EC62F066ECB28A3E8BD30700F267
S1130CF02A89AE89368AC28BD317F5A2530605E238
S1130D0089C7D317A522538607E28B3746FB9B87F7
S1130D1017C0D38707D28D6787B687D88D6707B783
S1130D2007D99307F03FD2178B3606CCDD8E8D673B
S1130D3043F7D772D38606F287B787D98D67D3F77F
S1130D40F60A87B607DA8D67C3F7D772539807C2D6
S1130D5087B787DA8D6707B707D88D67D30608D2B8
S1130D60C3F7F67207B707DB8D67539507C2D3073E
S1130D7005D2D3F7E71207B787DB8D67C7F6E67AA4
S1130D8087B707DC8D6707B087DC8D6753F7D6021A
S1130D9087B507DD8D6753F6D612D377F61AD3F7E6
S1130DA00702D377F61AD3F7B70287B587DDD3776F
S1130DB0F61A8D67D3F6D50AD3F7D702D377F71A85
S1130DC007B707DE1B05F53FD3F7E702994752152E
S1130DD0530705F2D3F7E71293F50B409B0C080079
S1130DE00B97B740D38707E2D30706F2538707F27E
S1130DF0D396E7A2639E0614BE861B843C061305A5
S1130E00600C8BB7BB2C33348500110495CF8D67F0
S1130E10530706F287B787DED387E7A263820714F6
S1130E208D6787B707DFD317F7A2638B0712BB075A
S1130E3097410127B3ACEC00FD37014793EB0B401E
S1130E400B9797430144814CB3356401BB078B4036
S1130E50014513FC2B008B17B54093351400B305E3
S1130E60B040FD8D8B978543638A0C00D30706F24F
S1130E70538706F2D3F7E71A538607E2D30700F243
S1130E80D316F5A299C6D30706F2D397F722538651
S1130E9007E27D78D30706F21308F87FD3A6F7A2FA
S1130EA033F80B01E1CA8D66530706F287B786D77C
S1130EB0D316F7A2F1EE530506F2D2865686CE85F6
S1130EC04A85EFF0FFB5AA8435C4930750042686FB
S1130ED0D286CE8593FB0B02130550060B95774300
S1130EE002991BD7FC419547B3C6EC001386140046
S1130EF03EE43B87E6407D34814822E029489BD785
S1130F00FC01D286CE854A85EFF09F83AA846303D1
S1130F100C02B30A55410B3B0B7C63FD6A010100D3
S1130F202686D286CE851305000285040299850A99
S1130F30E3E86AFF2685A6700674E6644669A66936
S1130F40066AE27A427BA27B027CE26C6561828063
S1130F50D377071A9B0CF8FFD38607E279BD01000B
S1130F609B07F7FF3A858B17B7400B95E7422A8713
S1130F70E1BD0100C2880D673E88D2868D47130704
S1130F8007B25686CE854A85EFF08FEFAA842DBF2F
S1130F90C2880D673E88D2869147130787B2D5B7BA
S1130FA03571814726E54AE1CEFCDAF006ED22E907
S1130FB0D2F8D6F4DEECE2E8E6E4EAE06EFC22B431
S1130FC026B0938707670B95B7402E8B2A89B28981
S1130FD003C5060081446301054E8D678D6A87B49D
S1130FE007D636848D673A8A938A0AB307B487D7BB
S1130FF011A801002686CE868504DA850299034568
S1131000040079C9050493075002E315F5FE01486D
S1131010414701001300000022830B4513989B07EE
S113102005FE9A8693F7F70F6366F7008BC7FA44B9
S1131030828701009B0705FD254793F7F70F63712E
S1131040F7109307A0026309F512A286814B1A8454
S11310509307E002014C6301F50C9B0785F94947AE
S113106093F7F70F636EF7000D67130747B78B47C6
S1131070F74482871368081003C516000128050485
S11310809B07B5FD1307300593F7F70FE364F7F6F5
S11310900D67130707BC8B47F74482871368180052
S11310A01A84012895BF0100136828001A840128B6
S11310B0A5B70100136848001A840128B1BF0100D4
S11310C0136808011A84012881BF0100136888008D
S11310D01A84012891B701001B840400B3B73401BA
S11310E093C717001386F9FFCE86DA850B96F44072
S11310F0014502992285EA604A64AA640A69E6798C
S1131100467AA67A067BE66B466CA66C066DE27D93
S1131110223482340D6182801368084003C51600AE
S113112001289B0705FD254793F7F70F637AF726F8
S11311309307A0026300F52AA286050439BF0100C3
S1131140814BA54619A0010005031B962B00A2851F
S1131150BB0776011A849B971700A99F03450300D8
S11311609B8B07FD1B0705FD1377F70FE3FEE6FCDA
S11311709A8613842500E9BD8B478A58BE8B63C7C2
S11311800700034514000904E1B5010013682800B1
S113119003451400BB0BF0400128090455BD0100B0
S11311A0930C8A00930780076306F5449307800530
S11311B06306F5309307F0066306F54693072006A9
S11311C06306F54A9376F8FEC287812613780840B1
S11311D0130790066318E54C6317084293F707203A
S11311E029466393073E368793F7061063920746B2
S11311F083270A0093F50604639C054013770708C8
S1131200630007480BA7073C9B55F7409B07070063
S11312102D8F0D9F0B37073C36E45EE0E288328861
S11312209BD7F7012686CE86DA854A85668AEFF053
S11312302FD1AA84E9B303C516009307C00663053A
S1131240F52613680810050401281DBD03C5160002
S1131250930780066302F52413680808050401282F
S113126005B593670802812707350A001305A5FB16
S1131270210A133515000B98A742D327A5A2638E24
S11312800728D31785A2639907322686DE876287EB
S1131290CE86DA854A85EFF0AFF8AA848DB3268628
S11312A0CE868504DA8513055002029989BB8B4DDD
S11312B08A7803C50D00631D0C1279576308053C39
S11312C00507EE8C6E9719A06385EC008BC71C880C
S11312D0E5FFBB87BC41BE8C1376280032ECE68662
S11312E0E68733B78C01137D0840134717008B172B
S11312F0EC4281278B96A743B68C630E06226304C7
S113130005162686B3849D4063070D009B07FCFFEA
S113131063050C143E8C930D1600CE86DA85029973
S11313200BC5B481630C05126E86F9BFC1471368FF
S1131330180201280B478A78268642E43EE0E288B8
S113134041488147CE86DA854A85EFF06FBFAA848B
S11313507DB1938C1400130D8A00668C13782800D9
S1131360630F0820CE862686DA8503450A00029993
S1131370854763F6772B89049B87EBFF8BB7077C44
S1131380BE940100130000006286CE86050CDA8547
S1131390130500020299E39984FF6A8A8DB1010062
S11313A0A5460100130000009B172C0022863B87F2
S11313B087011B171700299F0B4514881B0C07FD79
S11313C09B0705FD93F7F70FE3F0F6FEA2861304DF
S11313D0260061B10B478A5803C5260013843600E2
S11313E09347F7FF8906FD97337CF700BDB10100F1
S11313F00B370C7C630C05287D17D9B59377F50D55
S1131400130770046398E700856793870780336840
S1131410F80001289377D50F9387B7FB93B717008C
S11314201367080207350A000127210A0B18F7423F
S1131430D327A5A2FDC3D397A4A2E39407E4D317AB
S113144085A2639B07162686DE876287CE86DA85A9
S11314504A85EFF0FF87AA845DB6B28DE26799E30F
S1131460EE8471BEEE84668763F87C119B87FBFF74
S1131470938C1400999F8BB7077CB38D970111A0AF
S1131480850C2686CE86E684DA8513050002029949
S1131490E3989DFFEE84A5B61368080C03C52600E7
S11314A0012813843600E9BE1368083003C52600FA
S11314B0012813843600E9B601440DB1937638FF50
S11314C0937708408126414693E60602638F07120C
S11314D0F99A812693F7062013079006E303E5D0D3
S11314E013074006E30FE5CE639C0714B68713F792
S11314F00610631F071613F70604631F071093F7FC
S113150007086387071803570A0036E45EE0E28899
S1131510328881470B37077C31B3C2880D675E88F8
S11315208D47CE86130707B22686DA854A85EFF003
S11315302F95AA84E9B49B87160063F176179B87DD
S1131540FBFF938C1400959F8BB7077CE6973EE8CE
S113155019A00100850C2686CE86DA8513050002C3
S11315600299E684C267E39797FF9B871B0003C534
S11315700D00BE8CE31705D8A68DEE8449B48547CB
S113158063FB7711F93B8BBB0B7CE69B19A0010035
S1131590850C2686CE86E684DA8513050002029938
S11315A0E3989BFF93841B0003450A00CE865E8666
S11315B0DA856A8A0299A1B4C2880D675E88914768
S11315C0CE86130787B28DB783370A00E28813D714
S11315D0F74336E45EE0B346F7003288FD93338781
S11315E0E6402686CE86DA854A85668AEFF04F95F0
S11315F0AA8431B4137708404146937638FF812694
S1131600E30A07ECF1B52946E1B593770820E9BD73
S113161093F7F70F3E8709B103470A00FDB5E68447
S11316206A8AF1BA2146C286B68713F70640930543
S11316304006631BB50693F70720E30407BA49BDC8
S113164003370A00E28836E45EE03288814751BFFE
S113165083370A00E28813D7F74336E45EE0B346E3
S1131660F7003288FD933387E6406DBE094665BFB7
S113167003370A00E28836E45EE0328881475DB6CB
S11316809BD5F74133C7B7000D9F79B6814CA9B1FB
S113169003270A009DBDA68BE68439B7BE8CE312EE
S11316A005C6D9BD294649B7368881BF1300000055
S11316B0411122E006E42A840345050001C9010022
S11316C0FD55EF00E06E0B4514887DF9FD55294565
S11316D0EF00006EA26002640145410182800100B6
S11316E0FD556F00E06C13000000130000000100C2
S11316F04111FD5506E41375F50FEF00606BA26010
S11317000145410182801300000013000000010024
S11317101D711303810206EC0B56D1FE2EF4BAE0C0
S1131720BEE4C2E8C6EC1AE4AA868A851A877D5606
S11317300565130505A0EFF0BF86E2602561828090
S11317405D711303010206EC0B56D1FC0B57F1FE3D
S1131750C2E0C6E41AE4AE861A87AA857D5601451E
S113176013050566EFF0DF83E260616182800100AA
S11317705D711303810206EC36F40B57F1FEC2E0EF
S1131780C6E41AE4B2861A872E86AA850145130593
S11317900566EFF0FF80E260616182801300000063
S11317A00111AA8606EC2E877D562C0005651305CB
S11317B005A0EFF0EFFEE2600561828013000000F7
S11317C03687B2862E86AA850145130505666FF015
S11317D02FFD01001300000013000000130000009F
S11317E01D711303810306F40B55B1FA36FCBAE0FC
S11317F0BEE4C2E8C6EC1AE4B2860C081A877D5629
S11318000565130505A1EFF0AFF9A270256182808B
S113181000000000000000000000000000000000C4
S11318204111F32710C03EC63245410182800100B8
S1131830B71700053737334496071307272223A425
S1131840E7F48280000000000000000000000000B7
S11318500CC918658347C70093E707F893F7F70F98
S11318602306F700B7E7F5059B870710BBD5B7023A
S11318708BB7452C2300F7008BB5C54C2302B7006A
S11318808347C70093F7F7072306F7008280010018
S11318904CC985476384F5048947638DF50099C174
S11318A08280010018658347C70093F7770F2306EA
S11318B0F700828018658347C70093F7F70F93E713
S11318C087002306F70018658347C70093F7F70FCF
S11318D093E707012306F700828001001865834718
S11318E0C70093F7F70F93E787002306F7001865FF
S11318F08347C70093F7F70E2306F70082800100A1
S11319004CCD8947638EF50463E4B702B1C1186511
S11319108347C70093F7D70F2306F700186583475B
S1131920C70093F7F70F93E717002306F7008280A9
S11319308D47639DF50018658347C70093F7F70F3C
S113194093E737002306F7008280010082800100BC
S113195018658347C70093F7C70F2306F7008280F3
S113196018658347C70093F7E70F2306F700186548
S11319708347C70093F7F70F93E727002306F70081
S11319808280010013000000130000001300000017
S11319900CCD8DC18547639DF50018658347C7004D
S11319A093F7F70F93E747002306F70082800100BF
S11319B08280010018658347C70093F7B70F230699
S11319C0F7008280130000001300000013000000E1
S11319D00CD18280130000001300000013000000EB
S11319E04CD182801300000013000000130000009B
S11319F081E923200500B75701101CE501458280C9
S1131A00054582801300000013000000130000004D
S1131A10C1671841FD17630DF70E904110C9186591
S1131A208346C70093E606F893F6F60F2306D7001D
S1131A30B7E7F5059B870710BBD7C7028BB6472CC2
S1131A402300D7008BB7C74C2302F7008347C70096
S1131A5093F7F7072306F7009C455CC90547638B9A
S1131A60E71209476384E70C638E0710DC455CCDFD
S1131A7009476384E70E636FF702C9CF186583478C
S1131A80C70093F7D70F2306F70018658347C700ED
S1131A9093F7F70F93E717002306F700DC411CCDFB
S1131AA0B1CB05476388E7020BC7F5E418D15CD1D5
S1131AB0014582800D47E393E7FE18658347C7001D
S1131AC093F7F70F93E737002306F700DC411CCDAB
S1131AD0E9FB0DA018658347C70093F7F70F93E759
S1131AE047002306F7000BC7F5E418D15CD1014584
S1131AF08280010018658347C70093F7B70F230658
S1131B00F7000BC7F5E418D15CD1014582800100D0
S1131B100545828018658347C70093F7C70F2306DE
S1131B20F700DC411CCDB5FFF1B701001865834710
S1131B30C70093F7F70F93E787002306F7001865AC
S1131B408347C70093F7F70F93E707012306F700CE
S1131B50DC455CCD0947E390E7F218658347C7008D
S1131B6093F7E70F2306F70018658347C70093F739
S1131B70F70F93E727002306F700DC411CCD95F30C
S1131B8095BF010018658347C70093F7770F2306B5
S1131B90F700E9BD18658347C70093F7F70F93E78C
S1131BA087002306F70018658347C70093F7F70EED
S1131BB02306F70065BD13000000130000000100B8
S1131BC0233005022A87C1670145FD171CC38280A3
S1131BD05C5189CF186501008347470193F70702D9
S1131BE0E5DF2300B70001458280010005458280BE
S1131BF00545828000000000000000000000000095
S1131C00397122F84AF04EEC52E856E406FCAA8AEE
S1131C1026F45AE0AE89328A2E85EF00F00C23B008
S1131C200A0013091500137909F0130409101309A4
S1131C3009200100130000002285EF00401D2A8BBB
S1131C4025C9A285D2864E86EFF09FB7AA84634346
S1131C5005027D14636885021B8414005A85B3B49D
S1131C602401EF00801B93C414000B149940130942
S1131C700910D9B75A854A84EF00201A13090910AC
S1131C8065BF010001ED2685E2704274A2740279F9
S1131C90E269426AA26A026B216182805A85EF007E
S1131CA0300023B0AA0019C55A85EF000017E1BF20
S1131CB0D154D1BF23B06A01F9B713000000010069
S1131CC05D711303010206EC0B56D1FC0B57F1FEB8
S1131CD0C2E0C6E41AE41A86EFF09FF2E2606161A2
S1131CE082800000000000000000000000000000EE
S1131CF0B70700101307F00323A00700B70701106C
S1131D0098CB82800000000000000000000000006A
S1131D1000000000000000000000000000000000BF
S1131D2041110D6506E422E0130585DFEFF05F98AD
S1131D300D65130585E0EFF0BF9785450D65130527
S1131D4085E2EFF0FF9C89450D65130585E3EFF00F
S1131D503F9C81450D65130585E4EFF07F9B0544A9
S1131D6089458D47A2822E83338462000124630255
S1131D70F4020D65130585E6EFF09F99A2850D65C4
S1131D80130585E7EFF0DF98A26002640145410185
S1131D9082800D65130585E5EFF09F97C5B70000B8
S1131DA0000000000000000000000000000000002F
S1131DB02A87B707000223A8E7FE828013000000E9
S1131DC082800100130000001300000013000000D3
S1131DD082800000000000000000000000000000FD
S1131DE0014582801300000013000000130000006E
S1131DF0014582801300000013000000130000005E
S1131E000145828000000000000000000000B717B8
S1131E100400AA8503B507F701A8B7170400AA852B
S1131E2003B507F76F0030031D71A6E4CAE086EC22
S1131E30A2E84EFC52F856F45AF05EEC62E866E40E
S1131E40938475019307E0022A8963E89704930752
S1131E50000263EEB71EEF00C06093040002930714
S1131E6000051146B709040093898900CE9780675D
S1131E70138707FF630EE41E1C64146C1068F19B47
S1131E80A297986714EE90EA136717004A8598E7BB
S1131E90EF00405D130504017DAAB7070080C198D7
S1131EA093C7F7FF63E5971A63E3B41AEF00605B27
S1131EB09307701F63FD973A93D7940063890728AB
S1131EC01147636DF73093D764001B8697039B1605
S1131ED016001B8587038E06B709040093898900C1
S1131EE0CE968066C11663898618FD4531A063517C
S1131EF0072A006C638286181C64F19B3387974021
S1131F00E3D7E5FE03B40902370804001308880187
S1131F102A86631B041783B789001B57264085450F
S1131F20B395E50063F2B71C03B40901033A8400D6
S1131F30937ACAFF63E79A00B3879A407D47634A5E
S1131F40F722B7170400B71C040003BA07FB03B752
S1131F500CF6FD57330C5401269A6308F73A85674B
S1131F60FD073E9AFD77337AFA00D2854A85EF0061
S1131F70804FFD572A8B6301F532636D8531B71BA2
S1131F800400938B8BF703A70B00BB07470123A027
S1131F90FB00BE866306AC4003B70CF6FD57630D29
S1131FA0F740B3078B41B59F23A0FB00137CFB00D4
S1131FB0630B0C360567330B8B4193070701410B09
S1131FC0B3878741B30C4B01338A97417D17337A2A
S1131FD0EA00D2854A85EF000049FD576303F542C4
S1131FE0330565411B070A002A9A83A70B0023B80F
S1131FF06901136A1A00B99F23A0FB0023344B0123
S1132000630F343B7D46637E563B146413878AFE1C
S1132010419B858AD98E14E4A545B306E4008CE679
S11320208CEA6367E63E033A8B005A843717040050
S1132030833687FA63F4F6002334F7FA371704007B
S1132040833607FA63FEF6242330F7FA91ACB147DE
S11320502320F9000145E6604664A6640669E27936
S1132060427AA27A027BE26B426CA26C2561828086
S1132070806F0926E39287E003B40902370804005D
S113208013088801E30904E91C64FD46F19B3387C6
S1132090974063C7E61A23B4090323B00903635FB7
S11320A0070A1307F01F6368F70E8D831B87170059
S11320B01B1717000E0703B589004E970C639BD6B8
S11320C027408547B397D700C98F930607FF14ECC1
S11320D00CE823B4F90000E380ED1B572640854546
S11320E0B395E500E3E2B7E433F7F50001EF8605C5
S11320F0719A33F7F500112611E7860533F7F500D9
S1132100112665DFFD481B0316001B1313000E0385
S113211041134E931A851C6D328E6302F50E986737
S11321203E849C6F719BB306974063C1D80EE3C68F
S113213006FE2297146710684A8593E6160014E792
S11321401CEE90EBEF0000321305040129B793064F
S11321500040130600041305F003BDBBA297986763
S11321604A851367170098E7EF00C02F1305040191
S1132170DDB513E7140018E4A29423B8990093E79B
S113218017004A859CE4EF00E02D13050401E1B536
S1132190146C1068F5B113D79700914663F2E60EFC
S11321A0D14663E8E61A9B05C7059B9515009B0677
S11321B0B7058E05CE959861C115638BE514146738
S11321C0F19A63F5D700186BE39BE5FE0C6F83B7B8
S11321D089000CEC18E880E900EF01B75147637FF0
S11321E0F70C130740056364F71893D7C4001B86E4
S11321F0F7069B1616001B85E7068E06F1B9052E19
S113220093773E004105E1CB1C6D01BF106893E557
S113221014000CE41CEE90EBA29423B4990223B0B6
S1132220990293E7160023BC040123B804019CE43B
S113223022974A8514E3EF00E0221305040121BD2F
S113224093E6140014E4A29423B4990223B09902EF
S11322509366170023BC040123B8040194E4A297F5
S11322604A8598E3EF00002013050401EDB313D66B
S113227034009B0716009B97170001268E07DDB6D6
S113228013D767009B0597039B9515009B0687034F
S11322908E050DB7630B340F03B40901033A8400B0
S11322A0137ACAFFB3079A4063659A007D47E342F5
S11322B0F7EC4A85EF00001B014571BB1B86C7057F
S11322C09B1616001B85B7058E0639B183370301AB
S11322D07D3663956718937736004113E5FB03B7A2
S11322E0890093C7F5FFF98F23B4F9008605E3ED60
S11322F0B7C2E38B05C233F7F50011E7860533F760
S1132300F500112E65DF7286FDBB130A0A02B1B90E
S113231003B589009BD626408547B397D700C98F5C
S113232023B4F9007DB5330C4B01330C8041521CAE
S1132330135C4C03E2854A85EF00E012FD57014728
S1132340E305F5CA330565411B070C00330A850113
S113235069B99306400563EAE60613D7C7009B05EF
S1132360F7069B9515009B06E7068E05A1B5130796
S11323704015636AF70693D7F4001B8687079B16FC
S113238016001B8577078E0681BEB71B0400938B4E
S11323908BF783A70B00BB86470123A0DB00EDBEB0
S11323A013174C03E31A07BE03B40901569A136AC0
S11323B01A00233444019DB923B06CF7C5BE5A8476
S11323C0B5B185472334FB00EDB59306401563EDA5
S11323D0E60413D7F7009B0587079B9515009B061A
S11323E077078E05C1BB13074055636DF70493D778
S11323F024011B86D7079B1616001B85C7078E066C
S1132400E1BC411C338A8C01330A6A410147F1BEA5
S1132410930504014A85EF00002403B4090183A74E
S11324200B00033A840019B19306405563E3E602B6
S113243013D727019B05D7079B9515009B06C70754
S11324408E058DBB9306007F1306F0071305E00786
S113245061B49305007F9306E007A9BB83B78900A5
S113246071B582808280011122E826E42A84B7149F
S113247004002E8506EC23AC04FAEF002062FD571D
S11324806307F500E2604264A2640561828083A769
S113249084FBEDDBE2601CC04264A26405618280BF
S11324A0B7170400AA8503B507F709A0011122E8AC
S11324B02A842E8506EC26E44AE0AE84EF00C002AE
S11324C013091500CA852285EFF01F962A8409C5D1
S11324D04A86A685EF00803DE26022854264A264BC
S11324E00269056182800000937775002A87B1EB49
S11324F08D6783B607EAFD5510632107B377D600CD
S1132500B697D18FD58FE389B7FE834687FFB3078C
S1132510A740A9C6834697FF9DCE8346A7FFA9C6B9
S11325208346B7FF9DCE8346C7FF0346D7FF0345C7
S1132530E7FF95CE21C23335A0003E957915828000
S1132540C5DA83470700050793767700F5FB098F03
S11325501305F7FF8280138597FF8280138587FF19
S113256082801385B7FF82801385A7FF828013853D
S1132570C7FF82801385D7FF8280000079714EE403
S1132580B709040022F026EC4AE852E006F42E8A49
S11325902A8993898900EFF0DFEC03B70901856785
S11325A01384F7FD046733044441F1982694318081
S11325B07D143204634BF40081454A85EFF0BFEA91
S11325C083B70901A697630EF5004A85EFF09FE9EA
S11325D0A2700274E2644269A269026A014545611B
S11325E08280B30580404A85EFF0FFE7FD57630C16
S11325F0F502B7170400938787F7984383B6090158
S1132600818C93E414003B0487404A8584E680C3AC
S1132610EFF05FE5A2700274E2644269A269026AA3
S113262005454561828081454A85EFF0DFE303B7C4
S11326300901FD46B307E540E3D9F6F8B7160400EF
S113264083B606F693E717001CE7158DB71604004A
S113265023ACA6F69DBFFDC5011122E826E42E8415
S1132660AA8406ECEFF0FFDF033584FF130704FFB1
S1132670B70504009377E5FF3306F70093858500DB
S1132680146603B80501F19A630FC81214E60589AC
S11326903308D60041E1033304FF033888003705CB
S11326A004003307674083380701130585019A97AF
S11326B0137818006387A80E0333870123BC6800CE
S11326C023381301630F081493E6170014E71CE280
S11326D09306F01F63E2F6088D839B8617009B9692
S11326E016008E0603B88500AE9688621BD6274076
S11326F08547B397C700B3E70701138606FF10EFBA
S113270008EB9CE598E218ED4264E2602685A26439
S1132710056189BB03358800058915E53705040083
S1132720B69713058501146A93E817003308F70078
S11327306383A610106E90EE14EA2334170123303D
S1132740F80079B7828093E61700233CD4FE1CE29C
S11327509306F01FE3F2F6F893D6970011466361EF
S1132760D60A93D667001B8596031B1515001B8696
S113277086030E052E95146141156307D50C9066EA
S1132780719A63F5C700946AE31BD5FE886E08EF5F
S113279014EB426418E9E2602685A26498EE0561B0
S11327A0D1B1631F080E0C6E106AB69742640CEE2A
S11327B090E993E61700E26014E726853E97A26449
S11327C01CE3056145B10589B69709E9033504FFA2
S11327D0098F146F106BAA9714EE90EAB7160400D1
S11327E013E6170083B686F610E798E9E3EED7F010
S11327F0B717040083B507FB2685EFF03FD829B748
S113280051466372D60213064005636AD60493D612
S1132810C7001B85F6061B1515001B86E6060E056C
S113282091BFB69709B71B85C6051B1515001B86F6
S1132830B6050E0581B798F598F108EF08EB233437
S113284017012330F800C9B503B885001B5626408C
S113285085473396C7003366060190E50DBF13061E
S11328604015636CD60093D6F7001B8586071B15AD
S113287015001B8676070E05F5BD13064055636CDF
S1132880D60093D627011B85D6071B1515001B867A
S1132890C6070E05C5B51305007F1306E007D9BDAD
S11328A093E6170014E71CE285B50000B3C7A50042
S11328B09D8BB308C500A1E79D4763F2C7049377D6
S11328C075002A87A9EB13F688FF930706FC636754
S11328D0F7066373C702AE86BA8703B80600A1077A
S11328E0A10623BC07FFE3EAC7FE9307F6FF998F0F
S11328F0E19BA1073E97BE956366170182802A87F4
S1132900E37E15FF83C7050005078505A30FF7FEC2
S1132910E36A17FF828083C6050005079377770073
S1132920A30FD7FE8505C5D383C605000507937796
S11329307700A30FD7FE8505F9FF71B7946583B2BD
S1132940050083BF050103BF850183BE050203BEE5
S1132950850203B3050303B8850314E7B461233088
S113296057002338F701233CE7012330D7032334EE
S1132970C70323386702233C070334E313078704A0
S113298093858504E36CF7FAA9B779714AE803B92A
S1132990050022F026EC06F44EE452E02E84AA84CC
S11329A0630B0902833909006383090203BA09002E
S11329B0630B0A0083350A0099C1EFF01FFDD2852D
S11329C02685EFF05FC9CE852685EFF0DFC8CA857E
S11329D02685EFF05FC8A2850274A2704269A269DD
S11329E0026A2685E2644561BDB1B717040083B766
S11329F007F76384A70A2C7D797126EC06F422F08C
S1132A004AE84EE4AA848DC5014993090020B3879E
S1132A102501806301C8A28500602685EFF0BFC34D
S1132A207DF8AC7C2109E31439FF2685EFF0BFC2A1
S1132A30AC7081C52685EFF01FC203B4841F01CC9E
S1132A401389042063092401A28500602685EFF020
S1132A509FC0E31B89FECC6481C52685EFF0BFBF10
S1132A60BC488DC7BC6C2685829703B4045219CC2C
S1132A700C6081C52685EFF05FF1A2850274A27017
S1132A804269A2692685E2644561F1B6A2700274C6
S1132A90E2644269A269456182808280371304003E
S1132AA0833703FC411106E42A8885E30145814507
S1132AB00146814601479308600D730000007D576D
S1132AC0AA87630AE5022330A3FC3305F800814595
S1132AD001468146014781479308600D7300000059
S1132AE0833703FC3E9863180501A2602330A3FCDE
S1132AF03E8541018280EF000001A260B1471CC104
S1132B007D5541018280B717040003B507F7828021
S1132B10666E690000000000666E692B000000000C
S1132B206E616E0000000000666E692D00000000FA
S1132B30CC1000003410000034100000C01000005D
S1132B403410000034100000341000003410000071
S1132B50341000003410000034100000B4100000E1
S1132B6034100000A81000003410000034100000DD
S1132B709C1000004C120000801000007410000033
S1132B808010000036120000801000008010000049
S1132B9080100000801000008010000080100000F1
S1132BA080100000741000008010000080100000ED
S1132BB080100000801000008010000074100000DD
S1132BC09E120000F40F0000F40F0000F40F000048
S1132BD0F40F0000F40F0000F40F0000F40F0000E5
S1132BE0F40F0000F40F0000F40F0000F40F0000D5
S1132BF0F40F0000F40F0000F40F0000F40F0000C5
S1132C00F40F0000F40F0000F40F0000F40F0000B4
S1132C10F40F0000F40F0000F40F0000F40F0000A4
S1132C20F40F0000F40F0000F40F0000F40F000094
S1132C30F40F0000F40F0000F40F0000F40F000084
S1132C40FC13000062120000FC130000F40F0000EB
S1132C50F40F0000F40F0000F40F0000F40F000064
S1132C60F40F0000F40F0000F40F0000F40F000054
S1132C70F40F0000F40F0000F40F0000F40F000044
S1132C80F40F0000F40F0000F40F0000A011000086
S1132C90F40F0000F40F0000F40F0000F40F000024
S1132CA0F40F0000F40F0000F40F0000F40F000014
S1132CB0F40F0000A011000052130000A011000046
S1132CC0FC13000062120000FC130000F40F00006B
S1132CD0A0110000F40F0000F40F0000F40F000036
S1132CE0F40F0000F40F0000A01100002C130000EA
S1132CF0F40F0000F40F0000AE120000F40F000007
S1132D00A0110000F40F0000F40F0000A011000057
S1132D10000000000000F03F00000000000024401C
S1132D2000000000000059400000000000408F40F7
S1132D30000000000088C34000000000006AF84062
S1132D400000000080842E4100000000D012634186
S1132D500000000084D797410000000065CDCD41FC
S1132D60FFFFFFFFFFFFEF7F0000000065CDCD41B7
S1132D700000000065CDCDC1FFFFFFFFFFFFEFFFA7
S1132D80000000000000E03FFB799F501344D33F54
S1132D90B3C8608B288AC63F000000000000F83FDB
S1132DA061436F63A787D23F71A379094F930A40A8
S1132DB0EF39FAFE422EE63F1655B5BBB16B024021
S1132DC00000000000002C4000000000000024402F
S1132DD00000000000001840000000000000004057
S1132DE0000000000000F03F2D431CEBE2361A3FC8
S1132DF00000000080842E410A48656C6C6F2046F8
S1132E007269656E6421000057656C636F6D65209F
S1132E10746F20542D4845414420576F726C6421CF
S1132E2000000000000000000A612069732025648E
S1132E30210A00000000000062206973202564213B
S1132E400A0000000000000063206973202564214B
S1132E500A000000000000002121212050415353AA
S1132E602021212100000000212121204641494C3C
S1132E702021212100000000616674657220415305
S1132E804D2063206973206368616E6765642074F4
S1132E906F202564210A00001808040000000000C7
S10B2EA07F7F7F7F7F7F7F7F2E
S9030000FC
